:020000040800F2
:10500000D049002045510008290C010815ED000881
:105010000000000000000000000000000000000090
:105020000000000000000000000000008D2F0108BB
:10503000000000000000000003510008053E0108C8
:1050400057510008575100085751000857510008A0
:105050005751000889A5000805A6000849A60008C0
:10506000000000005751000857510008F9A400083B
:105070005751000857510008194D010857510008B1
:105080005751000857510008575100080000000010
:105090005751000857510008575100085751000850
:1050A000575100085751000857510008B9490108E5
:1050B000914A0108BDF20008000000000000000055
:1050C0000348854600F0E0FE0048004705770108E8
:1050D000D0490020064B19680868203080F3098801
:1050E000022080F314883FBCAE4662B600BD0000CB
:1050F000AC000020EFF3108072B6704780F3108888
:105100007047EFF309800E4B1A6820381060F0C02A
:1051100044464D4656465F46F0C008B572B614F098
:10512000C7FA62B60CBC116808681030F0C8A04617
:10513000A946B246BB4680F309882038F0C8184714
:10514000AC0000200448804704480047FEE7FEE723
:10515000FEE7FEE7FEE7FEE7ED3E0108C15000086E
:1051600030B50B46014600202022012409E00D46FF
:10517000D5409D4205D31D469540491B2546954087
:1051800040191546521E002DF1DC30BD70B50024CB
:105190002546002801DA01244042002901DA0125D0
:1051A0004942FFF7DDFFAC4200D04042002C00D066
:1051B000494270BDF0B51FB40646002082B00546D6
:1051C0004024019100901BE0019922460F46304691
:1051D00000F048FC049A059B801A994110D31046B0
:1051E0001946224600F02EFC361A8F4101972246BE
:1051F00001200021009F00F025FC38184D4100904F
:105200002046641E0028DFDC019B009829463246B8
:1052100007B0F0BD004870478CAB010810B50446DC
:10522000FFF7F8FF0068005DC007C00F10BD034620
:105230000B439B0703D009E008C9121F08C0042ACA
:10524000FAD203E00B780370401C491C521EF9D2BD
:105250007047D2B201E00270401C491EFBD2704779
:105260000022F6E710B513460A4604461946FFF732
:10527000F0FF204610BD30B505462A460B46107893
:105280001C78521C5B1C002801D0A042F7D0002CD7
:1052900003D0002802D06D1CEFE7284630BDCAB20B
:1052A000401E4178401C8A4202D00029F9D10020DA
:1052B0007047421C0178401C0029FBD1801A7047BE
:1052C00010B5002200E0521C835C8C5CA34201D12B
:1052D000002BF8D1D8B2E1B2401A10BD30B5044667
:1052E0000020034600E05B1C934203D2E05CCD5CEF
:1052F000401BF8D030BD03460A780270401C491CA0
:10530000002AF9D11846704730B5054600200346FB
:1053100000E05B1C934205D2EC5CC85C201A01D112
:10532000002CF6D130BD000070B5104D002800D122
:105330002868002414E00A4602E09E4203D0521C72
:105340001378002BF9D1DAB2224307D0002B06D014
:10535000002C04D000210170401C04E00446401CD5
:105360000678002EE7D12860204670BD0C01002091
:105370000321001D401E037812021A43491EF9D56D
:1053800010467047034603220870000A491C521E4B
:10539000FAD5184670470000F7B5009C0F46002666
:1053A0002578641C002D05D0FFF734FF0068405DB0
:1053B000C007F5D12B2D02D02D2D18D0641E3946F3
:1053C0002046029A00F072FB002F04D03968A142F7
:1053D00001D1009939607105022400290BDA40429D
:1053E000002803DD10F08AF90460A007FEBD01204B
:1053F00080020643E3E70028F8DA10F07FF9046042
:105400000048FEBDFFFFFF7F70B5064610F076F93D
:10541000046805460A2200213046FFF7BDFF2C60D4
:1054200070BDF8B502464A40D40F42004B00520806
:105430005B089A4202D20246084611464A0023D02F
:10544000C30D4A00DDB2120EAD1A202D35DA490225
:105450000126490AF6058A19002C00D05242202163
:105460004F1B1146B9402A411018C20D9A4221D053
:10547000002C17D0012D08DCDA05801AD20F801914
:10548000D207DBB200F0C0FBF8BDDA05801A0123B9
:1054900040001B06C01880185A428018CA0F1043DB
:1054A000490007E04908C2071143DA05801A80194C
:1054B0004008801800F0A0FBF8BD61000122511ADD
:1054C000001BF7E70122D2075140AAE70122D207C9
:1054D0005040A6E7024670B54A40D30FDB074000B4
:1054E0002DD04A002AD0010E140E00021202091912
:1054F000400A520A8418E50104465443000A120A7D
:105500002E045043A4194219200CC543AA18120CAA
:105510000125AD03521C521912047F39240400D016
:10552000521C104301D44000491EC2B20C06C009EF
:105530002018401C4008802A02D003E0002070BDE3
:1055400040084000002900DA0020184370BD70B503
:1055500002464A40D50F40004A00ED074008520875
:10556000002814D0002A12D0C40DD30D410201200E
:10557000C0055202490A520AE41A091812187D3469
:10558000914201D3641C00E04900002C01DA0020A4
:1055900070BD0023914201D3891A0343400849009A
:1055A0000028F7D100290AD0914202D10121C90770
:1055B00005E0914201D2012101E00121C943E0054A
:1055C000C018401900F018FB70BD0000F0B5074688
:1055D0000846584087B0C00F049048000E46590056
:1055E00040084908BC1A884105D2384631461E4653
:1055F00017460B4602465800400810434CD0300D69
:10560000039040055900400D490D0590401A029045
:10561000402872DA18030121000B090508430190A4
:1056200004980092002805D0019952420020884138
:1056300000920190029840210A1A0199009800F006
:1056400001FA05460C466B4607CB00F01CFAC01960
:105650007141039A0E0D0023D71756401A467A401F
:10566000164344D0049A002A2DD0029A012A039AA4
:1056700015DC1205C01A914101263605001C714146
:10568000D20F059ED2070093019202962A46234626
:1056900000F02CFB07B0F0BD38463146FAE716059E
:1056A000224A0F46B218C01AB74101210905001C51
:1056B0004F4100187F41114618187941E20F1043FD
:1056C0006D19644113E0E2076D0815436408C207D1
:1056D0001443039A01261205C01A91413605001C95
:1056E0007141CE07400830434908C01851412A464D
:1056F000234600F0EEFACDE7FFE7049801224000D0
:10570000C117121A00238B4104983146C417381A66
:10571000A141EEE730B40124E407634030BC55E713
:1057200030B40124E407614030BC4FE70000E0FFE3
:10573000F0B51FB488B00B99099800244840099926
:10574000C00F490049080991C0070B990090490012
:1057500049080B9109990898A64608431CD00B9953
:105760000A98084318D0099801244000420D4800C7
:10577000410D099824050003000B204309900B9864
:105780000003000B20430B9050181C4940180022C6
:1057900001901446104605E0002001460DB0F0BD12
:1057A000032801DA034600E003239C46C11A0AAE2F
:1057B0000AE05F0008ADED5B4F00F75B7D4300271B
:1057C000AA187C41491C5B1E6145F2DD410004AB17
:1057D0005A522104120C0A43240C401C0828DFDB17
:1057E000019802900099704601910090059B049ADF
:1057F0000799069800F07AFAD0E700000DFCFFFF49
:10580000F0B50C465C4085B0E40FE40703944C000F
:10581000002664085900944649080246029622432D
:1058200021D062460A431ED06200570D4A000E0383
:105830002303550D012402462C492405781B1B0B1C
:10584000360B401823432643614600901C46501AED
:10585000B44103D30098401C009002E092180098D5
:105860005B41002803DA0020014605B0F0BD0020AE
:10587000012109050746864611E064461D46141BB2
:10588000B54106D36546521BB341744607430C43EA
:10589000A646CD0740084908284392185B410546B3
:1058A0000D43EAD11046184313D0604619465040C4
:1058B0007140084306D06046101AB34106D2012257
:1058C000002306E000220123DB0702E00122D2438D
:1058D0005310009874460105381C6141029C039DD9
:1058E0000019694100F0F5F9BFE70000FD03000071
:1058F000C217C10F504010B54018CA0796230021A7
:1059000000F082F910BD10B500229623114600F078
:105910007BF910BD0EB5C217C10F5040CA07401821
:105920000021054B0293019200910A460B4600F0BC
:10593000DDF903B000BD0000330400000EB5054AD8
:105940000292002200921346019200F0CFF903B0B8
:1059500000BD000033040000410040020122400A63
:10596000D205090E80187F2901DA00207047962998
:1059700003DC9622511AC840704796398840704718
:105980004A0009030123090B1B051943094B10B5F4
:10599000520D9A4201DA002010BD064B34339A4270
:1059A00003DC9A1A00F05EF810BD034951188840D4
:1059B00010BD0000FF030000CDFBFFFFC20FD207A8
:1059C000400040080BD0C10D0723DB01C91840027D
:1059D0000905400A1143C2084007114370470020DF
:1059E00001467047CB0FDB07490010B54908024656
:1059F0000A4307D00A0D07240903E401090B121B0F
:105A0000002A01DC002010BDC900440F0C43C10076
:105A1000E018D205801800F0EFF810BD0122D2077F
:105A2000002800DB101A002900DB511A8142704760
:105A30000122D207002800DB101A002900DB511ACE
:105A40008842704710B5202A04DB0146203A914075
:105A5000002010BD914020239C1A0346E3401943C7
:105A6000904010BD10B5202A04DB0846203AD040F3
:105A7000002110BD0B46D340D0402024A21A9140F3
:105A80000843194610BD10B5202A06DBCB1708467F
:105A9000203A1041C1170B4306E00B461341D0409A
:105AA0002024A21A91400843194610BDF7B582B0D0
:105AB000029C00272078641C15460197302802D0EC
:105AC000002D15D015E020780127641C782804D01B
:105AD000582802D0002D09D00BE0002D01D0102D48
:105AE00007D1002710252078641C02E0082500E07B
:105AF0000A250026009610E000990127694308183E
:105B0000020C294680B2714300908E1838048642F8
:105B100001D3012001902078641C294600F0C6F9C9
:105B20000028E9DA0398002805D0002F01D0641E70
:105B300000E0029C04600198002806D00FF0DEFD12
:105B400002210160C81E05B0F0BD00993004084371
:105B5000F9E700000FB400B589B00CA900910B99CA
:105B60000023CB60204B214A069307920422019226
:105B70001F4A02921F4A089202466B46002000F01C
:105B800034FA09B008BC04B0184770B586B00646B0
:105B90000020C0430190002015460C460091029160
:105BA00004903246694604A8FFF7D4FF02460498E1
:105BB0002118002D05D0002801D0084600E020461D
:105BC0002860049800280DD0002A02DD0098884241
:105BD00008D0081B0190009432466946029404A83C
:105BE000FFF7B8FF06B070BD4162000861620008AF
:105BF000FFFFFF7F1D520008002904DA401C490006
:105C000001D140084000704770B40024050C05D154
:105C10001024000402D1002921D01124050E01D145
:105C200000020834050F01D10001241D850F01D1A8
:105C30008000A41C002801DB4000641C002908D05F
:105C400020252E1B0D46F540A14000D001212943FF
:105C5000084301061B1B000ADB1D02D5002070BC97
:105C60007047DB05181880180029F8DA401C490035
:105C7000F5D170BC40084000704770B5002801DCC9
:105C8000002070BD410040020126400AF605090EC1
:105C90008019CA0701D14000491E4D10002211464B
:105CA0003F353346CB409B18D418844201D8001BA3
:105CB0001A464000491C1729F3DD5100814202D2E7
:105CC0000021C94300E00021E8058018FFF794FF98
:105CD00070BD10B5002B08DA0024401C61419218F9
:105CE0005B411A4301D14008400010BDF0B51FB41C
:105CF00082B005460C0003D008460FF0ABFC02E072
:105D00000FF0A8FC20300246009021462846FFF7FD
:105D100099FE049B059A04460F4618431143084315
:105D200014D0184610431BD0009840210A1A184678
:105D30000599FFF797FE05460E46009A05990498C7
:105D4000FFF780FE084305D0012004E020463946D5
:105D500007B0F0BD0020C11705430E432C43374365
:105D600000990E986305401A7905E40A00220C4355
:105D7000FD0A0A3002D500200146E9E701051019A5
:105D800069410C9C0D9D00196941FFF7A2FFDFE7F7
:105D900070B54B005B0803430BD04B005C0D002635
:105DA00033466542B341D417AD1AA34102DB00204C
:105DB000014670BD12053018514170BDFEB500237B
:105DC0001A461B1A8A4103DB0020014603B0F0BDCE
:105DD0004A000D0301212D0B0905520D0D43D1077A
:105DE00002D100186D41521E5110FF31FF310131B7
:105DF000002704463E46384600970191024601219D
:105E000000200905FFF72EFEC3197141F81832462C
:105E100084468E464A4161462846611A904104D321
:105E20006046241A954176461F46241900986D4114
:105E3000401C00903428E1DDF91930467041091BFF
:105E4000A84103D20022D243134601E000221346A8
:105E500001980105381C7141FFF73BFFB6E70000D0
:105E600010B5002904DB0124E40740428C4121469F
:105E7000002B04DB1C460123DB075242A34199425D
:105E800000D1904210BD0000064C0125064E05E0F1
:105E9000E36807CC2B430C3C98471034B442F7D34B
:105EA000FFF712F920AF010840AF01083A2800D2ED
:105EB0003038202302469A43412A01D3104637380E
:105EC000884201D30020C04370470000FFB5087826
:105ED00089B01546FF2805D0491C2D2804D0002282
:105EE000002407E000240BE00122F9E70A235C43C9
:105EF0000419491C0878FF28F8D1002A00D0644210
:105F0000002004902A7801462D2A01D02B2A0FD197
:105F10006D1C2D2A02D00022049209E00122FBE729
:105F200000260A2233466D1C00F0DEF93818714154
:105F30002F78FF2FF4D10C9AA218069202460A433A
:105F400004D0FF23069A9133DA4205DA002109983A
:105F50000A4606C00DB0F0BD0024B74AB54D26462E
:105F60000792FFF7EBFC029006980391002801DAF4
:105F7000474200E0074639050020AF4A001C514166
:105F80000191009012E0F80707D022462B463046D8
:105F90000799FFF7CDFB0646079122462B46104690
:105FA0001946FFF7C5FB04460D467F10002FEAD1C6
:105FB0000698019B0028009A0399029806DAFFF7D9
:105FC0001FFC3246079BFFF71BFC05E0FFF7B0FB09
:105FD0003246079BFFF7ACFB049A002A02D001224D
:105FE000D2075140099A03C2B4E7FFB591B000202F
:105FF00009900025ED432E209E685C681F460190A5
:10600000B9696D1C129888470090396A8847002842
:10601000F6D10098401C0AD00D20C0018443002E08
:1060200012DD00982B2809D02D280DD103E0002087
:10603000C04315B0F0BD012080020443B9696D1C56
:1060400012988847761E009003A9600501D52D207F
:1060500000E02B206A461073491C0CA80F91029097
:106060000AE0B9696D1C129888470090012040022F
:1060700004431398761E0560002E02DD0098302838
:10608000EFD001990098884246D18020044308E06F
:106090000998401E09900120400204431399681C8E
:1060A0000860B9696D1C761E1298884700903028E8
:1060B000EED031E00199884205D1200603D480203A
:1060C0000443761E1EE000980FF07CFE002826D0C8
:1060D00001204002044307A90F980331761E88422D
:1060E0000BD200980F99303808700F98401C0F9011
:1060F000200607D50998401E03E0200602D409981F
:10610000401C0990A00502D51399681C0860B96964
:106110006D1C129888470090002ECBDC59E0002EB1
:1061200057DD0098652801D0452852D1A00550D5EB
:10613000032000028443B9696D1C761E12988847BB
:106140000090002E0CDD2B2804D02D2808D1FF2034
:1061500001300443B9696D1C12988847761E00907F
:10616000E00501D52D2100E02B2102980170029855
:10617000401C0290019025E00120400204430EA93A
:1061800002980131761E88420ED20098029930386A
:106190000006000E087003D10299019881420AD9C5
:1061A0000298401C029006E0E00501D5234801E07A
:1061B000224840420990B9696D1C129888470090A6
:1061C00013980560002E04DD00980FF0FBFD0028F9
:1061D000D2D1F969129888470F99FF200870029967
:1061E00003AA087000200A900B900CA90AA8099B2A
:1061F000FFF76CFEA00502D40120C04319E724205C
:10620000044209D0E00713D138680B9A0A99031D9C
:106210003B60006806C00BE00B990A98FFF7E2FBB1
:106220000146E00704D13868021D3A600068016049
:106230002846FEE6000014400000F03FF1D8FFFFC2
:106240004268002A08D001680B78491C002B03D053
:10625000521E06C0184670470121C160881E704753
:106260004268002A0BD0C3680168002B07D18368FD
:106270008B4204D0491E521C06C0002070470020EB
:10628000C04370470EB505490291002100910A46AE
:106290000B460191FFF72AFD03B000BD3304000057
:1062A00070B5CD0F4A0009030123090B1B051943E3
:1062B0000B4BED070024520D9A4201DA002070BD0D
:1062C000074B34339A4203DC9A1AFFF7CBFB02E008
:1062D0000449511888402C43F1D0404270BD000061
:1062E000FF030000CDFBFFFFF0B51FB486B0002018
:1062F0000090019002900698069980B20490079849
:10630000090C02040014114307900027089D099806
:1063100006913E463C4603900398A9B20204000C45
:10632000039004982D0C1543484300212246FFF7A3
:1063300089FBC719714110340E46402CECDB3846FE
:10634000029AFFF77FFB009A019B80180090594149
:1063500002980191103002904028CCDB00980BB0DD
:10636000F0BD000038B53A4800690121090708402E
:10637000000F00280ED1C82013F088F805F00CFAA1
:10638000FF20F53013F082F805F00EFA7D200001B1
:1063900013F07CF8012005231A46062100902DA059
:1063A00005F00CFA002851D10024C82013F06EF833
:1063B00005F0F2F9FF20F53013F068F805F0F4F974
:1063C0007D20000113F062F84B20C00109F08EFF20
:1063D000012002230522152100901FA005F0EEF9EF
:1063E000002814D120488079401CC1B21E48817118
:1063F000032901DC012402E000211B4881711B48B4
:10640000007802218843801C184908700EE00021A2
:1064100015488171E120400209F068FF0120022344
:106420000522062100900BA005F0C8F9B0230E4A02
:10643000A03A0A2102200DF0EBFD012C05D100232A
:106440001A4619460A200DF0E3FD00BF38BD0000D2
:1064500040100240453000002B49505245583D3114
:106460003135323030000000D512002054000020B9
:1064700008B50120C00202231A460621009002A09E
:1064800005F09CF908BD00002B4348555000000062
:1064900098B00BF0B3FC01F0ADFA0EF0C1FD01288D
:1064A00011D1FE480078402188434030FB490870F4
:1064B00001F00AFB002806D1F84840780221884301
:1064C000801CF649487000E3F548006800287DD03C
:1064D00000235A1E14A9F248006813F0D3FA0028CA
:1064E000F1D00CF0DFFB10A8007C03000FF0E2F805
:1064F0000C0D070E151F23272FFDFCFBFA0D10AB0B
:106500009A8B169915980CF03BFBD6E210AB9A8B40
:10651000169915980CF0EEFBCFE2102404E020460B
:106520000CF009FB601CC4B24F2CF8DDC5E2012061
:1065300010F0FCFEC1E2002010F0F8FEBDE20CF00D
:1065400049FB04462146D7A00FF046F8B5E2D949E9
:10655000D9A00FF041F8D9480078002803D0D749D6
:10656000D7A00FF039F8D3491831D6A00FF034F87E
:10657000D248407B002804D0D0490D31D0A00FF084
:106580002BF8CC493031D1A00FF026F8CB48807ED3
:10659000002804D0C9491A31C9A00FF01DF8C54917
:1065A0004831CCA00FF018F8C4482030C07900283A
:1065B00004D0C2492731C2A00FF00EF8BD496031A6
:1065C000C6A00FF009F8BD48203000E079E2007D58
:1065D000002804D0B9493431B9A00EF0FDFFB54907
:1065E0007831C0A00EF0F8FFB44840304078002861
:1065F00004D0B2494131B2A00EF0EEFFAD49903166
:10660000BAA00EF0E9FFAD484030807B002804D0EE
:10661000AA494E31AAA00EF0DFFFA649A831B5A0C5
:106620000EF0DAFFA5484030C07E002804D0A34910
:106630005B31A3A00EF0D0FFB048C07B4006400EF7
:10664000AF49497EAF4A12781207D20FAD4B1B7883
:10665000DB06DB0F0693079208910990A848C07DDE
:10666000412801D1012300E00023A64800788007DB
:10667000C10FA44800784007C00FA04A927B059341
:106680000292049103909D4819380146123903463D
:106690001E3B0246353A0091019045399AA00EF012
:1066A0009BFFA74800788006C00F96490978C90962
:1066B00000910190934800784006C30F91480078FC
:1066C0008006C20F9E4800780007C10F9DA00EF003
:1066D00083FF8A4929319FA00EF07EFF8748203032
:1066E000007903E0DEE1BDE1C4E07EE08349097B9F
:1066F000009101908148837CC27A417B99A00EF081
:106700006BFF8F480078C006C00F01214840009001
:106710008B4800784007C30F894800788007C00F76
:1067200048400246864800780840414097A00EF055
:1067300053FF9A4871498039026899A00EF04CFFC6
:10674000002413E028210AA8FEF78AFD28216143CE
:1067500019225201881826220AA90CF011FA0AAA55
:10676000214692A00EF038FF601CC4B2052CE9DB74
:1067700090480078E025284303468F480078284356
:1067800002468E480078284301468DA00EF024FF73
:106790005A482038407B002805D15849491D48A057
:1067A0000EF01AFF06E0554A521D114618398AA00C
:1067B0000EF012FF5148457C067C28023043034608
:1067C0004E4820304279017987A00EF005FF90A154
:1067D0004A485238FEF774FD002802D18DA00EF011
:1067E000FBFE6DA00EF0F8FE67E144481F30FEF797
:1067F000BFFD322148430921090444182522874955
:1068000020460CF077FA3D481F30FEF7B1FD0546F3
:106810003A481F30FEF7ACFD441C38491F31204672
:10682000FEF7B0FD7E48854209D934491B3100206E
:10683000FEF7A8FD31491F310020FEF7A3FD79487E
:10684000FEF796FD05280ED87648FEF791FD05283F
:106850000FD82A481F30FEF78BFD04463C21FEF777
:106860007FFC002905D1B022244980390A200CF090
:1068700041FA22E121481B30FEF77AFD04461F4809
:106880001F30FEF775FD844206D267484078042128
:106890008843001D6449C9E0E3E000005400002083
:1068A00034000020573235204944203D2025303423
:1068B000580D0A00E512002041257300A5130020A1
:1068C0002C2573003B422573000000003B432573D9
:1068D000000000003B442573000000003B45257389
:1068E000000000003B462573000000003B47257375
:1068F000000000003B48257300000000B512002096
:1069000015160020680000203B25733B25733B25AE
:10691000733B25733B25733B53706565643A25646F
:106920003B25643B25643B25643B25643B25643B58
:106930004241543A25642C256425250D0A000000A7
:1069400069000020256425642564256425643030B1
:1069500030303B0050617373776F72643A25730D6A
:106960000A00000025303258482C25303258482C77
:106970003030482C25303258482C3030482C2530C7
:106980003258482C25303258482C000025643B25CD
:10699000643B25643B25643B0D0A00000800002091
:1069A000494D45493A257325730D0A0025643A255A
:1069B000730D0A009700002095000020940000202D
:1069C00025303258482C25303258482C2530325842
:1069D000482C0D0A48503A00687474703A2F2F25DD
:1069E000732C2573000000000D0A4C6F772D673A59
:1069F00025643B486967682D673A25643B446973A1
:106A000061626C6564207461702C48423A256400B0
:106A1000554450002C554450000000005F160020E3
:106A2000F049020041110020700000204870274802
:106A3000FEF79EFC3221484309210904441825220F
:106A4000234920460CF09CF80020012104220092EA
:106A5000019102901E48037E002211460A200DF08B
:106A60007BFA2AE025221B49FF20F5300CF042F981
:106A70000CF0ECF800BF00BF00BF00BF00BFBFF3C9
:106A80004F8F00BF00BF00BF13481449C86000BF4C
:106A900000BF00BFBFF34F8F00BF00BF00BF00BFEC
:106AA00000BFFDE725220B49FF20F5300CF022F94D
:106AB0000CF0CCF811F0DEFC00BF00BF0CF0C6F803
:106AC00003E07D20C00012F0E1FCFDE4D0120020C4
:106AD0003A160020151600200400FA0500ED00E02B
:106AE00086B0BF48007840084000401CBC49087090
:106AF00005F07CFAFF20F53012F0C8FCB9480069B7
:106B0000012109070840000F00281BD10EF05AFD93
:106B100050200BF0E1FF7D20C00012F0B7FCB2481E
:106B2000007880218843B0490870B0484079AF4967
:106B30000979AE4C00910190E378A27861782078D1
:106B40000BF024F9FFF70EFCA54800788007C00F72
:106B5000002801D105F066FAA14800788007C00F2F
:106B6000002827D10AF0C2F99F480078C009002800
:106B700002D1022003F0E0FF822005F067FC9C4870
:106B80000078C007C00F002817D0002003F0D4FF02
:106B9000002812D100219748C17601773C21417726
:106BA0000021817794480078402188434030924901
:106BB000087002E0802005F049FC05F0F1F98848F2
:106BC0000078400840008649087001218B48006821
:106BD00012F0EDFD8A480078C007C00F002803D0EE
:106BE00003200BF04FFD12E0854800788007C00FAE
:106BF000002803D004200BF045FD08E08048007811
:106C00004007C00F002802D005200BF03BFDE6E056
:106C10007C48006800287CD000235A1E02A97948CD
:106C2000006812F02FFF0028F1D06846007A0300B8
:106C30000EF040FD10CD09171E253E42454D50581F
:106C400060AAADB0BACD664800788007C00F0028B2
:106C500003D0822005F0FAFB02E0812005F0F6FB6C
:106C6000B5E005F009F8002801D005F0E7F8AEE03E
:106C70000BF08CFD002801D005F0E0F8A7E0002023
:106C80006149009009788906CB0F5F490978890628
:106C9000C90F012461400A460321039803F028FB31
:106CA000012802D105F0CAF801E005F0B7FB8EE03B
:106CB000012010F0ADF98AE00AF018F987E06C467F
:106CC000A37D627D049903980CF062F97FE004F0E3
:106CD00057F87CE06C46E37DA27D617D207D0CF061
:106CE00001FA74E06946087D0023012204210CF0BA
:106CF000F9F96CE04048007802218843801C3E4945
:106D000008703C48017FC27E08021043002812D15F
:106D100000E060E003F010FF00282ED13C21354850
:106D20004177002181773448007840218843403002
:106D30003149087021E0012003F0FEFE00280AD04E
:106D400000212C48C17601772B48007840218843E8
:106D50002949087011E0284800784006C00F002833
:106D60000BD13C21234841770021817722480078CC
:106D7000402188434030204908701F480078022194
:106D800088431D49087022E004F0BCF81FE00AF0B7
:106D900041F91CE02523154AFF21F53102200DF0B1
:106DA00037F911F067FB12E07D20C00012F06EFB96
:106DB000012002231A460621009014A004F0FEFCD4
:106DC00000231A4619460A200DF022F900BF00BF21
:106DD00005F0E6F803E07D20C00012F057FB17E74E
:106DE00054000020401002406900002015160020C9
:106DF00068000020181100207000002038000020DA
:106E00006B000020300000206E0000202B43465510
:106E10004E3D362C300000000EB5FF20F53012F04C
:106E200035FB04F0D7FBFB4800784007C00F002873
:106E300002D106200BF026FC01200EF0FFFA13E22F
:106E4000F548006800287DD00021C943F248006859
:106E500010F0AAFC0028F2D1F04840780007C00FDB
:106E600000280BD1ED4880784007C00F002805D1DD
:106E7000EA4880780007C00F00287DD009F040FF65
:106E80000028FAD0E548407808218843E349487053
:106E90000846807840084000887008464078802185
:106EA0008843DE49487008464078C006C00F002875
:106EB00010D00846407810218843D84948700020F7
:106EC000022100910346D6A201910290D6490720E3
:106ED0000DF042F8D14840788006C00F002810D04D
:106EE000CE48407820218843CC49487001200222B6
:106EF00001900E23009202900022114609200DF00D
:106F00002BF8C64880784007C00F002805D1C34839
:106F100080780007C00F00285ED0C4480078400782
:106F2000C00F002832D1C1480078C007C00F002828
:106F30002CD1BF48006812F097F90A2826D9B74823
:106F4000807800E08CE14007C00F00280AD00020C4
:106F5000022100910346B7A201910290B749072090
:106F60000CF0FAFFAD4880780007C00F002821D050
:106F700001200222019000E049E02D2300920290BE
:106F80000022114609200CF0E7FF13E0A3488078A7
:106F90000007C00F00280DD02522A949A948FEF7F7
:106FA00046F92D20A749087600231A4619460820DD
:106FB0000DF02EF89948807804218843974988700D
:106FC000084680780821884394498870084680786C
:106FD0000221884391498870904840784006C00F4C
:106FE000002811D098480078C007C00F002802D0B0
:106FF00001200EF023FA05200BF0E2FC87484078D0
:10700000402188438549487004F044F8FFE08348F4
:1070100080784007C00F002805D18048807800079D
:10702000C00F002828D07D4880780007C00F0028B6
:1070300010D000200EF002FA00280BD00020012111
:1070400003222D230092019102900246014609205D
:107050000CF082FF71488078042188436F49887062
:1070600008468078082188436C49887008468078F3
:107070000221884369498870684840780007C00F3A
:107080000028C3D07148817A427A080210431E2832
:107090004BDB62488078C007C00F00281FD05F48D4
:1070A0008078400840005D49887069480078401C3D
:1070B000C0B267490870032811DD012008706248DA
:1070C0000078C007C00F002809D000200090019070
:1070D000892302460146029009200CF03DFF4F48EB
:1070E00040784006C00F00281FD057480078C007DE
:1070F000C00F002802D001200EF0A0F947484078C8
:107100004006C00F002810D052480078002803DD48
:1071100005200BF055FC02E003200BF051FC3F482A
:107120004078402188433D4948704848817A427AF6
:10713000080210433C2819DB384840788006C00F0D
:10714000002813D001200EF079F93448407820212E
:107150008843324948700120032201900E23009297
:1071600002900022114609200CF0F6FE3748817A81
:10717000427A08021043782817DB28484078C00676
:10718000C00F002811D0254840781021884323499A
:1071900048700020022103220346009201910290D0
:1071A0002DA2214907200CF0D7FE2848817A427A87
:1071B00008021043FF212D31884205DB1748407833
:1071C000802188431549487014488078C007C00F53
:1071D00000281CD1114840788006C00F002816D125
:1071E0000E4840784006C00F002810D10B48407868
:1071F000C006C00F00280AD108484078C0090028FE
:1072000005D106484078082188430449487004F0B5
:1072100087FA29E06900002028000020840000206F
:10722000475053204F4B2100F91400206E000020DE
:10723000300000204155544F2D000000E512002081
:10724000151600205F16002068000020181100208D
:107250004600002090000020475053204E47210058
:107260007D20C00012F012F9EAE5000012E00A48A1
:10727000006800280AD00021C9430748006810F0C0
:1072800093FA002806D109F095FF03E07D20C000A5
:1072900012F0FCF8EBE700002C0000200EB509F01E
:1072A0000DF8FD4805F0ECFFDBE2FC480068002823
:1072B000FAD00020C04300231A46F9490090F7484D
:1072C000006812F0E9FAF749086008460078C0073C
:1072D000C00F00285BD00121F048006812F02EFAA0
:1072E000F14800780028F5D0EF4800788121084067
:1072F00080284DD1EC48007802210840002803D0B6
:10730000EAA00EF069F92DE0E74800780421084072
:10731000002810D000200322019000920290E24841
:10732000C07D18225043E44A81180023E3A20720BD
:107330000CF012FE16E0DC48007808210840002816
:1073400010D0E0480078C007C00F00280AD0012004
:1073500003220190992300920290002211460920F5
:107360000CF0FAFD0020D0490870887118230A46F5
:107370007D21C90002200CF04BFECB48C079EE28DD
:10738000A8D000231A4619460A200CF041FEB5E0A9
:107390000DF046FE012803D0CB48407E32287DDB2D
:1073A000C148807904283CDBBF48007802210840AE
:1073B000002803D0C5A00EF00FF926E0BA480078E7
:1073C0000421084000280FD0002000900190029076
:1073D000B548C07D18225043B74A81180023BEA289
:1073E00007200CF0B9FD10E0B6480078C007C00FC8
:1073F00000280AD00120032201909A2300920290D3
:107400000022114609200CF0A7FD0020A6490870B3
:10741000887118230A467D21C90002200CF0F8FD6E
:107420006CE0A8480078C007C00F00280FD0A5481E
:10743000007840084000A3490870002000900190A7
:1074400003460246014602900C200CF085FD9D4843
:107450000078022188439B4908709348807900286E
:1074600006D12523984AFF21F53102200CF0D0FDEA
:107470008D480078C0210840002831D100231A46E9
:10748000194603200CF0C4FD7D20C00011F0FEFF62
:10749000854909780C221140084600E027E00BF0EE
:1074A0009DF8814800780C21084000280FD08D48B5
:1074B00000788007C00F002820D10090019003467B
:1074C0000246014602900D200CF046FD16E076487B
:1074D000007802210840002810D00DF051FD0DE089
:1074E00000231A46194604200CF092FD06E07D4860
:1074F00040781021884310307A4948706948006804
:10750000152149010840002871D07F21C900634836
:10751000006812F013F9744800784007C00F002883
:1075200065D172480078C007C00F00285FD16F484E
:1075300000788007C00F002859D16C4800784007B8
:10754000C00F002853D15748006880210840002808
:1075500013D050200BF0C0FA00220121084602F09F
:10756000A5FE002000900190034602465249483192
:10757000029004200CF030FD39E04A4800680121F7
:1075800049020840002813D050200BF0A5FA002231
:107590000121084602F08AFE002000900190034677
:1075A000024645496031029004200CF015FD1EE0B2
:1075B0004F490020FDF7E6FE4E4840780007C00F17
:1075C000002807D04B484078082188434949487033
:1075D0000CF02EFB484800788007C00F002803D12C
:1075E0001E2043492139887003200BF04BF82D48A9
:1075F000006801218902084000284CD00024274857
:10760000006812F09BF800F0E0F9044600F052F92F
:10761000002C7FD13948C0790A287CDB002037490B
:10762000C871314A12785207D20F002A32D1344A37
:1076300052785206D20F002A2CD1324A1278324B9D
:107640001B78D11A002901DB0A4600E04A421E2AB3
:107650000BDA2E4A12782E4B1B78D01A002801DB49
:10766000024600E042421E2A14DB264800782649E2
:10767000087026480078264908701F48007880075F
:10768000C00F002803D11E20194921398870042019
:107690000AF0F8FFA6E0A6E0841A002038000020D7
:1076A000A326000004000020F11700204F544120C1
:1076B0004F4B210D0A000000E51200204F544120DD
:1076C0004F4B210068000020151600204F54412028
:1076D0004661696C210D0A004F5441204661696C76
:1076E00021000000540000206E0000206B000020EC
:1076F0003911002070000020690000204B0000209C
:1077000084000020400000204200002041000020B2
:1077100043000020FFE7534800784007C00F0028CF
:107720002CD1E007C00F002812D04F4800784F49F5
:1077300008704F4800784F4908704F48407840081B
:107740004000401C4C49487000204C49C87115E06D
:1077500002202040002811D0494840784006C00F40
:1077600000280BD1474800788007C00F002802D1BD
:107770001E204549887005200AF084FF41480078A2
:107780000007C00F002816D06007400F002812D055
:107790003D4921310020FDF7F5FD3C4840780007C8
:1077A000C00F002807D0394840780821884337495E
:1077B00048700CF03DFA002404E000F0FFF864206B
:1077C00011F064FE0421324805F0B0FC002801D01D
:1077D000012000E00020002804D12046611CCCB22A
:1077E0001428EADB00BF2B4800680221084000286B
:1077F00037D02948006811F0A1FF0DF011FC0128D5
:107800002FD1204800784006C00F002829D12348F6
:10781000407E622825DD6420214988704870087008
:107820001E49487617480078402188434030154962
:107830000870B0231B4A0A2102200CF0E9FB012347
:10784000104A194602200CF0E3FB0E48007880062F
:10785000C00F002805D000238A2213A1012011F0B7
:10786000C1FA22E56E000020400000204200002006
:107870004100002043000020540000204B00002065
:1078800084000020690000201811002070000020F2
:1078900000040050040000203800002015160020CD
:1078A00047000020351200204241542046554C4CE0
:1078B00021000000F0B58DB0022000F08BF80C9094
:1078C0000C98C007C00F002803D1022000F082F8F6
:1078D0000C90032000F07EF8014607900C9808F009
:1078E0000BF90446204660430A90052000F072F828
:1078F0000790042000F06EF80690079908F0FCF855
:107900000B900B9840430990072000F063F8079014
:10791000062000F05FF80690079908F0EDF807469A
:10792000384678430890099A0A998A180899501895
:10793000FDF7F0FF05460E462846314611F00AFCD9
:1079400005460E462046FDF7E5FF2A4633460191DF
:107950000090FDF755FF039102900EF085FC134A4D
:10796000134B05910490FDF7E3FE07910690FEF797
:1079700007F8104908703846FDF7CCFF2A46334611
:1079800001910090FDF73CFF039102900EF06CFC1A
:10799000064A074B05910490FDF7CAFE0791069031
:1079A000FDF7EEFF044908700DB0F0BD24AC952240
:1079B000DCA54C40400000204100002010B58F2283
:1079C0002121302007F01CFC10BD10B5092000F06B
:1079D00001F810BD10B504462146302007F06AFBBF
:1079E00010BD70B504460D462A462146302007F0EA
:1079F00007FC70BD10B500242B480079002801D089
:107A00000820044328484079002801D00720044377
:107A10000C210F20FFF7E5FF00212020FFF7E1FFF9
:107A200000211E20FFF7DDFF86212420FFF7D9FF6C
:107A300003211920FFF7D5FF8F212120FFF7D1FF68
:107A400028212220FFF7CDFF174801792320FFF7D7
:107A5000C8FF1E212520FFF7C4FF134841792620C7
:107A6000FFF7BFFF08212B20FFF7BBFF04212A20CF
:107A7000FFF7B7FF00212720FFF7B3FF00212820E1
:107A8000FFF7AFFF5A211120FFF7ABFF00211220B3
:107A9000FFF7A7FF00211620FFF7A3FF21461720BD
:107AA000FFF79FFF10BD0000D512002008B5012090
:107AB00002231A460621009001A003F07FFE08BDB4
:107AC0002B4345434D3D310010B50221014805F0DF
:107AD0002DFB10BD0004005038B5012003460522DF
:107AE000062100900AA003F069FE002801D00020C2
:107AF00038BD0A2011F0CAFC07A10948FDF7BBFBFD
:107B00000446002C01D0E07AF2E70120F0E7000003
:107B10002B434C43430000002B434C43433A0000AB
:107B200019140020F7B584B005460F4601200390D4
:107B30000290ADE07D20C00000231A467F21C900DD
:107B400000905448006811F0A7FE06467F21C90046
:107B50005048006811F0F2FD40203040002807D066
:107B6000332C05D1002D0FD101200CF025F90BE0AD
:107B7000032000023040002806D0332C04D1002D11
:107B800002D100200CF018F910203040002806D057
:107B9000012F7DD1FEF76CFC022007B0F0BDFFF78E
:107BA0009BFF0446002C71D0302C50D10698002841
:107BB00049D0394800788007C00F002843D0039887
:107BC000012812D1FFF772FF002003903349C870DB
:107BD0003348407802218843801C31494870FF2196
:107BE00001313048006811F0A9FD2C49C8780A21FC
:107BF000FDF7CCFA002902D100200FF079FE002118
:107C00002848006811F09AFDFF2101310840002842
:107C100009D023484078022188432149487011F057
:107C2000D3FA0120B9E71D48C078142830DB1C487E
:107C30004078022188431A494870FEF719FC11F078
:107C4000C3FA0020A9E7FFF731FF0120A5E7332C95
:107C500013D10298002810D00020029002F0E6FA1A
:107C6000012D04D10421002011F032FA10E00E4958
:107C7000C878032111F02CFA0AE0312C03D0342CFF
:107C800001D0352C04D1002087E7FFE7002084E7EE
:107C900050E70000380000206A0000201811002082
:107CA0006E0000203C000020D512002070B5054673
:107CB0000C46102C08D105A00DF08EFC00231A46AE
:107CC000194604200CF0A4F970BD0000204F4B2190
:107CD0000D0A000070B505460C46102C08D105A011
:107CE0000DF07AFC00231A4619460A200CF090F990
:107CF00070BD0000204F4B210D0A00003EB5054627
:107D00000C46102C25D113A00DF066FC134800780A
:107D100040084000401C1149087001230A46002118
:107D200002200CF075F900200090019003460246F5
:107D3000014602900C200CF00FF9002000900190F9
:107D400003460246014602900B200CF005F90BF0A9
:107D50006FFF3EBD204F4B210D0A00006800002040
:107D60003EB505460C46102C20D111A00DF034FC78
:107D700011480078400840000F4908700F4800780B
:107D8000400840000D49087001230B4A00210220E1
:107D90000CF03EF900200090019003460246014697
:107DA00002900C200CF0D8F80BF042FF3EBD000012
:107DB000204F4B210D0A00006800002070000020B9
:107DC000F0B58BB004460F4601200A902078312888
:107DD0007EDB207838287BDC60782C2878D12078EE
:107DE000313803000DF066FC0805080D12171C2140
:107DF000262B644D644E22E0624D1835624E0D36DE
:107E00001DE0604D3035604E1A3618E05D4D483546
:107E10005D4E273613E05B4D60355B4E34360EE029
:107E2000584D7835584E413609E0564D9035564EEE
:107E30004E3604E0534DA835534E5B3600BF00BFAD
:107E4000A07844281ED1202F07D1009523784FA277
:107E5000202102A80DF0D0FB07E0102F05D12378D8
:107E60004EA2202102A80DF0C7FB00200A904AA2D2
:107E70004DA128460DF0DAFB47A24BA130460DF08C
:107E8000D5FB4EE049A1A01CFDF7F5F90190019842
:107E9000002805D00021019801700198401C019034
:107EA000A0782B2806D0FDF7B5F90068A178405CD2
:107EB000202835D1E01CFDF7FCF9C0B20146009046
:107EC000E01C07F0AFF900282AD000200A9000E05B
:107ED00047E0A31C34A2182128460DF08DFB202F6B
:107EE00007D10095237829A2202102A80DF084FB58
:107EF00007E0102F05D1237828A2202102A80DF039
:107F00007BFB0198002806D027A20D213046019B5B
:107F10000DF072FB04E020A223A130460DF086FB99
:107F200000BF0A9800281BD1012000210091019078
:107F300003203843034620780007000F401CC2B2DC
:107F400002A902A811F00EF8C0230E4AFA2102205D
:107F50000CF05EF868230C4A154902200CF058F822
:107F600000BF0A9801280AD1002100910190032046
:107F700038430346FE220FA113A010F0F3FF0BB00D
:107F8000F0BD0000E5120020A51300202563544534
:107F90004C204F4B2125733B0000000025635445C6
:107FA0004C204F4B21000000257300002C000000E6
:107FB0008A0200006572726F722070686F6E6520B1
:107FC0006E756D6265722100204552524F5221003C
:107FD00030B58FB005460C462878312809D10020ED
:107FE00000902346FE220F490190084610F0BAFF88
:107FF00016E0342102A8FDF733F90B4800680B4B5B
:108000000BA23421009002A80DF0F6FA0020009097
:1080100023460A2202A9019002A810F0A3FF00BF84
:108020000FB030BDFCAC0108080000203512002064
:10803000494D45493A25732C25730000F3B589B0A5
:108040000F46002008900120079000200590049022
:108050000390099806902C210998FDF720F9044611
:108060006078752802D06078552805D1A0782C2832
:1080700002D100200790A41C3A210998FDF70FF9BE
:108080000646002C0ED1002E0CD172A21E21724881
:10809000069B0DF0B1FA00216F4830304175203059
:1080A000C171A0E0641C761C069800782C2804D1CD
:1080B000002069491039087409E068A10698FDF7A5
:1080C00033F964A21E216448069B0DF095FA2078CE
:1080D0003A2804D100216048303041754DE060A15C
:1080E0002046FDF721F92046FDF7E3F8102842D29B
:1080F00000252AE0FDF78EF80068615D405C2028CD
:108100000BD10598401CC0B2059000200490059842
:10811000032818DD012008901CE0605D2E280FD197
:108120000498401CC0B20490002005900398401CA5
:10813000C0B203900498012805DD0120089009E0F1
:108140000120089006E0681CC5B22046FDF7B1F892
:10815000A842CFD800BF0398032801D0012008907F
:108160000898002809D123463AA212213A484530FE
:108170000DF042FA01E001200890307800282ED05E
:108180003046FDF796F8062826D200250BE0FDF7CD
:1081900041F80068715D405C202802D00120089001
:1081A00006E0681CC5B23046FDF783F8A842EED859
:1081B00000BF3046FDF728F92A49884201DD012039
:1081C0000890089800280ED1334622A206212248A2
:1081D00057300DF011FA06E00120089003E000216D
:1081E0001D485030C1710898002825D107980128F2
:1081F00007D11DA317A2042117481E300DF0FCF96A
:1082000006E01AA313A2042113481E300DF0F4F95E
:10821000B023114A103A0A2102200BF0F9FE012086
:108220000021009101900320384303460B2210A146
:1082300014A010F097FE0BE00120002100910190A6
:10824000032038430346FE2210A116A010F08AFE38
:108250000BB0F0BD25730000451200202C0000007B
:108260003A000000FFFF0000544350005544500006
:108270005345542041504E2C495026506F72742063
:108280004F4B2100204F4B2100000000534554204C
:1082900041504E2C495026506F7274204552524F17
:1082A00052210000204552524F5221003EB5054652
:1082B0000C46102C33D02878002830D11D48007887
:1082C00040084000401C1B49087001230A46002159
:1082D00002200BF09DFE0020009001900346024614
:1082E000014602900C200BF037FE00200090019018
:1082F00003460246014602900B200BF02DFE0BF0C8
:1083000097FC202C15D10C490C48FCF7F4FF0C48C5
:10831000007804218843001D0949087009E0012004
:1083200000212346FE220091019006A106A010F034
:1083300019FE3EBD68000020E1140020F914002061
:108340006C00002000000000204552524F522100D6
:108350003EB505460C46102C2BD02878002828D195
:10836000144800784008400012490870124800780C
:10837000400840001049087001230E4A00210220E5
:108380000BF046FE00200090019003460246014695
:1083900002900C200BF0E0FD0BF04AFC302C08D0D2
:1083A000002000902346FE2204A1019007A010F0B7
:1083B000D9FD3EBD6800002070000020436C6F7343
:1083C00065642047505253204F4B210000000000AD
:1083D00070B505460C462878002812D1202C09D10A
:1083E00008490948FCF787FF01200AF04BF90BF018
:1083F0001FFC06E0302C04D102200AF043F90BF0F8
:1084000017FC70BDE1140020F914002030B599B0BC
:1084100005460C46302C0DD1012000210091019021
:1084200003202043034610223CA13CA010F09AFDFB
:1084300019B030BD102C06D100231A46194607206A
:108440000BF0E6FD67E0202C65D1354840793449D2
:108450000979334A203A127B314B203BDB7A149363
:108460001592169117902E482038C07B4006400E7A
:108470002C494A7E2C4909780907C90F2A4B1B78D9
:10848000DB06DB0F10931292119113902548C07DEB
:10849000412801D1012300E0002323480078800710
:1084A000C00F214909784907C90F1D4A203A927B1C
:1084B0000F930C920D910E901948393801461239DC
:1084C00002461E3A0346353B089309920A910B90E7
:1084D000393A1649084618380346183B049305AB49
:1084E00007C30246303A603960380346183B0093B0
:1084F00001AB07C30346303B0D4AA0210D480DF0E8
:108500007BF8012000212346FE22009101900949B9
:1085100002A010F027FD00BF8AE700000000000065
:10852000D512002015160020680000208D130020B1
:108530005CAD0108241700207CB504460D460621D9
:10854000204606F06FFE00280CD10120002100918A
:108550000190032028430346FE2210A111A010F031
:1085600001FD1AE00020A071234610A20721104847
:108570000DF042F8B0230E4AA93A0A2102200BF06E
:1085800047FD01200021009101900320284303466C
:10859000112208A10CA010F0E5FC7CBD4552524F01
:1085A00052210000204552524F52210025730000F5
:1085B000DE1200204368616E676520506173737737
:1085C0006F7264204F4B2100204F4B2100000000B0
:1085D000F3B587B00F460020069005900390002663
:1085E000079D28783038C4B2052C01DC012C01DA53
:1085F00001200690AD1C2878302805D02878312835
:1086000002D00120069001E028780490AD1C287863
:10861000302802D10020039007E02878312802D1C9
:108620000120039001E001200690049831287DD1BB
:10863000AD1C002621E0A85D302802DBA85D3928AA
:1086400019DD082E08D0122E06D01B2E04D0252EA0
:1086500002D00120069012E0A85D57280BD0A85D3B
:10866000452808D0A85D4E2805D0A85D532802D023
:108670000120069003E0701CC6B2262EDBDB00BF93
:10868000012128460EF032FD0290601E0001C74A0B
:1086900081180298FCF776FE287A532810D1611EC3
:1086A0000901C24A8818FCF763FE0121C907484046
:1086B0000290601E0001BD4A81180298FCF762FE1C
:1086C0000021284609300EF011FD0290601E0001C5
:1086D000B64A8018011D0298FCF754FEA87C572862
:1086E00012D1611E0901B14A8918081DFCF740FE2C
:1086F0000121C90748400290601E0001AB4A801862
:10870000011D0298FCF73EFE0121284613300EF0B1
:10871000EDFC0290601E0001A44A80180146083159
:108720000298FCF72FFEE87E532800E03DE014D1CC
:10873000611E09019D4A891808460830FCF718FE99
:108740000121C90748400290601E0001974A801825
:10875000014608310298FCF715FE002128461C301E
:108760000EF0C4FC0290601E0001904A8018014681
:108770000C310298FCF706FE2520405D572814D1E5
:10878000611E0901894A891808460C30FCF7F0FD82
:108790000121C90748400290601E0001834A8018E9
:1087A00001460C310298FCF7EDFD069800287DD1BA
:1087B0000498312848D150237C4A7D4902200BF08F
:1087C00027FC601E2821484319214901401826230F
:1087D0002A460146029002200BF01AFC75480078E8
:1087E000611E01228A401043724908707248007865
:1087F000611E01228A4010436F49087003980028C7
:1088000010D06E480078611E01228A4010436B49E7
:1088100008706B480078611E01228A4090436849C5
:1088200008703EE065480178621E01209040814357
:108830006248017062480178601E01228240114343
:10884000C8B25F4908702CE0601E282148431921F6
:1088500049014018262305AA0146029002200BF088
:10886000D7FB54480078621E01219140884351494A
:10887000087051480178601E0122824091434E48A1
:1088800001704E480178601E0122824091434B489E
:1088900001704B480178601E012282409143484894
:1088A0000170444801786846017500E06FE0434874
:1088B00001786846417542480178684681753E48AE
:1088C00001786846C175042305AA032102200BF034
:1088D0009FFB3C48007810218843364909780901FC
:1088E00010221140084337490870084600782021BB
:1088F0008843304909788907C90F4901202211406E
:1089000008433049087008460078402188432949C7
:1089100009784907C90F89014022114008432949B4
:1089200008700846007880218843224909780907A1
:10893000C90FC90180221140084322490870084626
:108940004078400840001B490978C906C90F084310
:108950001C494870049831280CD101200021009155
:108960000190032038430346122217A11AA010F0E9
:10897000F9FA18E00120002100910190032038430A
:108980000346122216A114A010F0ECFA0BE001200D
:10899000002100910190032038430346FE2215A1D7
:1089A0001AA010F0DFFA09B0F0BD0000A1170020F6
:1089B000260200009400002097000020950000206F
:1089C000960000208400002047656F46656E636551
:1089D00020736574204F4B00204F4B210000000096
:1089E00047656F2066656E63652064656C657465B8
:1089F0006400000047656F66656E6365207365748B
:108A00007570206661696C656400000020455252F3
:108A10004F522100FEB504460D46012002902078F9
:108A2000302802D0207831284ED160782C284BD1C4
:108A3000A01CFCF73EFCC6B23146A01C06F0F2FBBF
:108A4000002841D0A01CFCF734FCC7B23946A01C5A
:108A500001F0B2FC06461E2E35D3FF2E33D8224835
:108A600086732078312807D1204800780421884374
:108A7000001D1E49087005E01C4800780421884349
:108A80001A49087000200290194840780421884350
:108A9000174948700123154A002102200BF0B8FA4B
:108AA000B023114A803A0A2102200BF0B1FA0120CA
:108AB00000210091019003202843034613220DA1B9
:108AC0000FA010F04FFA00BF029801280AD1002130
:108AD00000910190032028430346FE220AA10CA026
:108AE00010F040FAFEBD0000B51200206800002022
:108AF0008400002053455420535044204F4B210004
:108B0000204F4B21000000004552524F52210000DF
:108B1000204552524F522100FEB504460D46012613
:108B20002078482842D1601CFCF7C3FBC7B2394605
:108B3000601C06F077FB002837D0601CFCF7B9FBFF
:108B4000C7B23946601C01F037FCC1B251484171CF
:108B50004079FF2802DDFF214E484171B0234D4A84
:108B6000A03A0A2102200BF053FA4A484079002823
:108B70000CD10120002100910190032028430346DD
:108B8000172245A149A010F0EDF90BE001200021CA
:108B900000910190032028430346152245A143A0DC
:108BA00010F0E0F90026FEF725FF63E020784C285E
:108BB00042D1601CFCF77DFBC7B23946601C06F051
:108BC00031FB002856D0601CFCF773FBC7B2394656
:108BD000601C01F0F1FBC1B22E4801710079FF2841
:108BE00002DDFF212B480171B0232A4AA03A0A2155
:108BF00002200BF00DFA2748007900280CD1012043
:108C0000002100910190032028430346182230A13F
:108C100026A010F0A7F90BE001200021009101909F
:108C200003202843034616222EA120A010F09AF913
:108C30000026FEF7DFFE1DE0207800281AD100266E
:108C400001200021009101900320284303461422B3
:108C50002AA116A010F086F97D20C00010F016FCA5
:108C600000200090019003460246014602900E202B
:108C70000BF072F9012E0BD101200021009101901F
:108C8000032028430346FE2220A122A010F06AF907
:108C9000FEBD0000D512002044697361626C6564FA
:108CA00020486967682D67204F4B2100204F4B21DA
:108CB0000000000053455420486967682D67205420
:108CC00068726573686F6C64204F4B210000000070
:108CD00044697361626C6564204C6F772D67204F27
:108CE0004B210000534554204C6F772D672054686A
:108CF000726573686F6C64204F4B2100506F77650D
:108D000072204F6666204F4B210000004552524FA3
:108D100052210000204552524F522100F0B589B037
:108D200004460F46012008900020079020782B2849
:108D300002D020782D2872D1FCF76CFA0068617897
:108D4000405C2028F7D1FCF765FA0068A178405C08
:108D50002028F0D160780007000F0A214843A1784D
:108D60000907090F4018C0B20790079818287DDA44
:108D7000E0783A283BD1FCF74DFA00682179405C55
:108D8000202839D1FCF746FA00686179405C202838
:108D900032D100BF21790907090F0A2251436279B4
:108DA0001207120F8918C8B2002806D00F280AD05F
:108DB0001E280ED02D2818D111E000229F494A7399
:108DC0000021089111E020229C494A73002108915A
:108DD0000BE0402299494A730021089105E0602286
:108DE00096494A730021089100BF00BF04E00020AB
:108DF00008900021914841730898002836D18F4887
:108E0000407B079908438D49487320782B2807D168
:108E10000846407B802108438849487306E02DE0DE
:108E20008648407B4106490E844841738448007857
:108E300080218843824908700123824A0021022050
:108E40000BF0E6F801237E4A194602200BF0E0F809
:108E5000B0237A4A803A0A2102200BF0D9F8012087
:108E60000021009101900320384300E0D6E0034642
:108E7000192275A179A010F075F8CFE0207831287B
:108E800075D160782C28FBD1207A2C28F8D10621C6
:108E9000A01C06F0C7F90028EFD0062120460930B3
:108EA00006F0C0F90028E8D0A0780007000F0A21DA
:108EB0004843E1780907090F461820790007000F99
:108EC0000A21484361790907090F4018C5B2A07902
:108ED0000007000F0A214843E1790907090F4018EC
:108EE000C0B20690607A0007000F0A214843A17AB9
:108EF0000907090F4018C0B20590E07A0007000F7B
:108F00000A214843217B0907090F4018C0B2049089
:108F1000607B0007000F0A214843A17B0907090F66
:108F20004018C0B20390122E60DB262E5EDC0C2DA2
:108F30005CDC06981F2859DC0598172856DC049835
:108F40003B2853DC03983B2850DC0020089006980F
:108F50001E280DDD022D07D0042D05D0062D03D0CF
:108F6000092D01D00B2D1AD10120089017E03EE009
:108F700006981D2804DD022D11D1012008900EE075
:108F800006981C280BDD022D09D13046F117890FF8
:108F9000091889108900711A01D0012008900898D9
:108FA000002823D10399049801910090F0B2029017
:108FB0002946059B069A08F0E9FE214800788021A1
:108FC000884380301E49087001230A461946022052
:108FD0000BF01EF80120002100910190032038437E
:108FE00003461A221FA11DA00FF0BCFF16E0207837
:108FF000342813D10020089011480078802188433C
:109000000F4908700120002100910190032038438E
:1090100003461D2217A111A00FF0A4FF08980128F4
:109020000AD1002100910190032038430346FE221B
:1090300017A119A00FF096FF09B0F0BDB5120020DE
:1090400069000020680000205345542054494D45D4
:10905000205A4F4E45204F4B21000000204F4B21FE
:109060000000000053455420434C4F434B204F4BCE
:109070002100000053455420746F20476574204739
:109080005053204E65772054696D65204F4B210069
:109090004552524F52210000204552524F5221005A
:1090A000FEB504460E4601272078342828D1607882
:1090B0002C2825D1A078302802D0A07831281ED1C4
:1090C00000276348007840084000A178C907C90F0D
:1090D00008435F49087002F07DFA01235C4A0221CF
:1090E00008460AF095FF012000210091019003201D
:1090F00030430346222257A159A00FF033FF98E0D6
:109100002078322839D160782C2836D1A01CFCF781
:10911000D0F8C0B201460190A01C06F083F80028E8
:10912000EDD0A01CFCF7C5F8C0B201460190A01C10
:1091300001F042F905463C2D7BD34B20C00085420F
:1091400077D80027A9B248480174090A4174B023AE
:109150000246803A0A2102200AF05AFF0AF068FD0E
:10916000012000210091019003203043034620227A
:109170003EA13BA00FF0F6FE5BE02078302802D045
:109180002078312855D160782C2852D16079532825
:1091900005D060794D2802D06079482849D1032153
:1091A000A01C06F03FF8002843D00321A01C01F0CA
:1091B00003F90546002D3CD0FF2D3AD200272A485E
:1091C000C572617901732F480078022188432178A4
:1091D00049000222114008432A4908700AF028FD7C
:1091E0000123284A002102200AF012FFB0231E4A60
:1091F000803A0A2102200AF00BFF207831280CD196
:1092000001200021009101900320304303461F22DA
:109210001DA113A00FF0A6FE0BE00120002100917C
:1092200001900320304303461F221CA10CA00FF025
:1092300099FE012F0BD10120002100910190032004
:1092400030430346FE221BA11CA00FF08BFEFEBD87
:109250006A00002053455420475053204D6F6465E9
:10926000204F4B2100000000B51200205345542030
:109270004865617274626561742054696D65204F40
:109280004B21000068000020534554204155544FA5
:1092900020545241434B204F4B21000043616E63E9
:1092A000656C204155544F20545241434B204F4B45
:1092B000210000004552524F5221000020455252D9
:1092C0004F522100FEB504460D4601272078302874
:1092D00002D02078312849D160782C2846D102214B
:1092E000A01C05F09FFF00287DD00221A01C01F0EA
:1092F00063F8C6B22D2E38DC00274248C6732078AA
:10930000312813D1404800780821884308303E496D
:10931000087001200021009101900320284303469A
:1093200023223AA13CA00FF01DFE11E03648007840
:1093300008218843344908700120002100910190E0
:10934000032028430346232235A133A00FF00AFE51
:1093500001232D4A002102200AF05AFEB023294A97
:10936000803A0A2102200AF053FE3CE0207832289D
:1093700039D160782C2836D1A078312802D0A07855
:10938000302830D100272B48007820218843A1784D
:1093900049012022114008432649087001230A464A
:1093A000194602200AF034FEA07831280CD10120A1
:1093B00000210091019003202843034623221EA18F
:1093C00015A00FF0CFFD0EE0A07830280BD10120C2
:1093D00000210091019003202843034623221BA172
:1093E0000DA00FF0BFFD012F0BD101200021009136
:1093F0000190032028430346FE2219A11AA00FF072
:10940000B1FDFEBDB5120020680000204F50454E52
:10941000204C4F5720424154204F4B210000000068
:10942000434C4F5345204C4F5720424154204F4B03
:1094300021000000690000204F50454E2046554C49
:109440004C20424154204F4B21000000434C4F53CD
:10945000452046554C4C20424154204F4B210000A2
:109460004552524F52210000204552524F52210086
:109470007CB506460D462C213046FBF710FF04460E
:10948000002C23D000202070641C334616A2172124
:1094900016480CF0B1F8234613A20C2113481730DC
:1094A0000CF0AAF8B023114A323A0A2102200AF03D
:1094B000AFFD0120002100910190032028430346C5
:1094C00024220BA111A00FF04DFD0BE00120002183
:1094D00000910190032028430346FE220DA10FA016
:1094E0000FF040FD7CBD00002573000067120020D6
:1094F0005345542041504E204E616D65202620502A
:10950000617373776F7264204F6B2100204F4B2182
:10951000000000004552524F522100002045525297
:109520004F522100FEB504460D4601272078302811
:1095300018D15A48007810218843584908700123EF
:109540000A46002102200AF063FD0120002100915B
:109550000190032028430346252251A156A00FF075
:1095600001FD8CE020783128FBD160782C28F8D1DF
:10957000A01CFBF79EFEC6B23146A01C05F052FEB1
:1095800000287CD00026A01CFBF793FEC0B2014649
:109590000290A01C00F010FF0646002E6ED0FA2E9E
:1095A0006CD800273D4800781021884310303B4993
:1095B0000870002142484175817542484078022177
:1095C000884340494870404886744048FBF7D0FEC5
:1095D0000090FCF798F93E490190FBF7B8FF3A4933
:1095E00013310290FBF7CEFE3848801FC07C532811
:1095F0000BD135481330FBF7BBFE0121C9074840AA
:10960000314913310290FBF7BDFE3048001DFBF7D6
:10961000AFFE0090FCF777F92D490190FBF797FF1B
:10962000294917310290FBF7ADFE2848801F807C46
:1096300057280BD124481730FBF79AFE0121C907A0
:109640004840214917310290FBF79CFEB0231E4A87
:10965000803A0A2102200AF0DBFC01230F4A002194
:1096600002200AF0D5FC012000210091019028433E
:109670000346252217A110A00FF074FC00BF012F94
:109680000BD10120002100910190032028430346C3
:10969000FE2215A116A00FF065FCFEBD680000209B
:1096A00043616E63656C2047454F20416C61726D6C
:1096B000206F6B2100000000204F4B2100000000B4
:1096C0001811002084000020B51200201B16002075
:1096D0008096184B5365742047454F20416C61724A
:1096E0006D206F6B210000004552524F5221000047
:1096F000204552524F5221007CB504460D46207839
:1097000031287DDB207835287ADC60782C2877D1E9
:10971000A078302802D0A0783128F8D120783138CC
:1097200003000BF0C7FF05042E5884AED800A078C4
:10973000312813D178480078202188432030764999
:109740000870012000210091019003202843034666
:10975000262272A177A00FF005FC11E06E48007878
:10976000202188436C49087001200021009101905C
:10977000032028430346262270A16EA00FF0F2FBBF
:10978000AAE0A078312813D16348007840218843AB
:1097900040306149087001200021009101900320B0
:1097A0002843034627226BA162A00FF0DBFB11E0E8
:1097B000594800784021884357490870012000210A
:1097C00000910190032028430346272267A159A056
:1097D0000FF0C8FB80E0A078312815D14E48007802
:1097E0008021884380304C4908700120002100917D
:1097F0000190032028430346282264A14DA000E0E5
:109800007CE00FF0AFFB11E04348007880218843F3
:109810004149087001200021009101900320284354
:10982000034628225FA143A00FF09CFB54E0A078E0
:10983000312813D16248007802218843801C604996
:109840000870012000210091019003202843034665
:1098500029225CA137A00FF085FB11E05848007861
:10986000022188435649087001200021009101908F
:10987000032028430346292259A12EA00FF072FB92
:109880002AE0A078312813D14D480078042188437C
:10989000001D4B4908700120002100910190032018
:1098A000284303462A2255A122A00FF05BFB11E0BA
:1098B0004348007804218843414908700120002171
:1098C000009101900320284303462A2251A119A0A8
:1098D0000FF048FB00E000BF00BF2078342806DA14
:1098E00001230D4A002102200AF092FB12E001231D
:1098F000334A022108460AF08BFB0BE001200021CD
:1099000000910190032028430346FE2247A149A06D
:109910000FF028FB7CBD0000680000204F70656ED2
:1099200020534F532043616C6C204F7574204F4B74
:1099300021000000204F4B2100000000436C6F739A
:109940006520534F532043616C6C204F7574204F3A
:109950004B21000053657420616E7377657220613E
:109960006E79206E756D62657221000053657420FA
:10997000616E7377657220617574686F72697A655C
:1099800064206E756D62657221000000536574205D
:10999000616E737765722062792075736572204FEE
:1099A0004B21000053657420616E737765722061EE
:1099B00075746F6D61746963616C6C79210000006E
:1099C0006A00002053657420766F696365206D61BD
:1099D000696C20626F7820646574204F4B21000011
:1099E00053657420566F696365206D61696C2062F0
:1099F0006F78206E6F2064657421000053657420B9
:109A0000436865636B20707377206F6E204F4B2126
:109A10000000000053657420436865636B20707319
:109A200077206F6666204F4B210000004552524F51
:109A300052210000204552524F522100FEB50546EA
:109A40000E460120029028783B2807D10020029082
:109A50000021384841732030417146E02F463B21B8
:109A60002846FBF71CFC0446002C3DD0002020704B
:109A7000641C072230A13846FBF730FC002833D1A4
:109A80003846FBF716FC07282ED9FB1D2CA21821FF
:109A900028480D300BF0B0FD2078002805D1029049
:109AA00000212448203041711EE02046FBF701FCD4
:109AB000062819D22046FBF7FCFBC0B201460190F4
:109AC000204605F0AFFB00280ED02046FBF79CFC9B
:109AD0001C49884208DA00200290234618A2062179
:109AE000144825300BF088FD00BF0298002813D1E0
:109AF000B023104A603A0A2102200AF089FA0120B4
:109B00000021009101900320304303462B220EA137
:109B100011A00FF027FA0BE0012000210091019025
:109B2000032030430346FE220DA10FA00FF01AFAC6
:109B3000FEBD000095120020687474703A2F2F004B
:109B400025730000FFFF0000534554204854545033
:109B5000204F6B2100000000204F4B21000000002F
:109B60004552524F52210000204552524F5221007F
:109B7000FEB505460C460126287856284FD1687850
:109B8000002801D1002610E02846FBF792FB0528AB
:109B90000BD82846FBF78DFB401EC7B23946681C20
:109BA00005F040FB002800D00026002E37D1102CF5
:109BB00003D102209F4908700EE0202C09D1042017
:109BC0009C4908709C4800F013FC401E9949C875D8
:109BD00002E0082097490870002096498871C871F2
:109BE0006B1C96A205219348401C0BF005FD182321
:109BF000904A7D21C90002200AF00AFA01200021C2
:109C0000009101900320204303462E228CA18FA0B7
:109C10000FF0A8F901218F4800680FF0C8FD2878DF
:109C200030286FDB287839286CDC0026287830381B
:109C300003000BF03FFD0A061A2D4154687E94A9DB
:109C4000D2E78548007840084000401C82490870EF
:109C500001200021009101900320204303462F2280
:109C60007EA17AA00FF07EF9CDE07B480078400815
:109C700040007949087001200021009101900320E3
:109C800020430346302278A170A00FF06BF9BAE0B0
:109C90007148007802218843801C6F4908700120B8
:109CA000002100910190032020430346312272A13C
:109CB00066A00FF057F9A6E06748007802218843B4
:109CC0006549087001200021009101900320204384
:109CD0000346322270A15DA00FF044F993E05E4884
:109CE0000078042188435C4908700120002100911C
:109CF000019003202043034633226FA153A00FF0AD
:109D000031F980E086E05448007804218843001D42
:109D10005149087001F010FC0120002100910190D0
:109D2000032020430346342267A148A00FF01AF90C
:109D300069E049480078082188430830464908709E
:109D400009F076FF012000210091019003202043BB
:109D50000346352261A13DA00FF004F953E03E48CF
:109D60000078082188433C49087009F061FF012010
:109D700000210091019003202043034636225BA17D
:109D800032A00FF0EFF83EE033480078042188431A
:109D900031490870084600781021884310302E4958
:109DA000087001F0EDFC554800788007C00F0028CE
:109DB00006D01C2001218140514A116000BF00BF24
:109DC0000120002100910190032020430346372207
:109DD0004CA11EA00FF0C6F815E01F480078102116
:109DE00088431D49087001F09BFC0120002100916F
:109DF0000190032020430346382246A113A00FF010
:109E0000B1F800E000BF00BF0123134A1946022049
:109E10000AF0FEF8012E0BD10120002100910190E3
:109E2000032020430346FE223EA141A00FF09AF8F2
:109E3000FEBD0000F1170020E11400202573000092
:109E40004F5441205374617274210000204F4B2104
:109E500000000000380000206900002054616C6B95
:109E6000696E67206F6B21004C697374656E2069A1
:109E70006E204F4B2100000043616C6C696E6720BF
:109E8000696E2073696C656E63652066726F6D2004
:109E9000534F53204F4B210043616C6C696E672018
:109EA0007769746820766F6963652066726F6D20CC
:109EB000534F53204F4B21005475726E206F6E200C
:109EC000475053204F4B21005475726E206F6666C9
:109ED00020475053204F4B21000000004750525361
:109EE00020534C4F57204F4B2100000047505253F6
:109EF000204E4F524D414C204F4B2100440000203A
:109F000000E100E0475053205354524F4E47204F3A
:109F10004B21000047505320534156494E47204F94
:109F20004B210000534554204552524F522100000E
:109F3000204552524F522100F0B591B004460D46D3
:109F400001262078332852D16078302802D06078FA
:109F500031284CD1A0782C2849D1FBF75BF9006857
:109F6000E178405C202802D0E0782B283ED1201DEB
:109F7000FBF79FF9C7B23946201D05F053F90028B9
:109F80007BD0342104A8FBF76BF9607830280BD123
:109F900000220121084600F089F93F4B3FA23221FF
:109FA00004A80BF029FB05E03B4B43A2322104A897
:109FB0000BF022FB0026E31C45A2142145480BF0C0
:109FC0001BFB0020009001900320284303463A2207
:109FD00004A941A00EF0C6FF0020009001900346A6
:109FE00002463C490290042009F0B6FF45E02046B5
:109FF000FBF75FF9C7B23946204605F013F9002890
:10A000003BD02046FBF755F9032836D800262046DA
:10A01000FBF74FF9C7B23946204600F0CDF9C1B27F
:10A020002F48C170C078642802DD64212C48C170BB
:10A030002B49C8780A21FBF7A9F8C1B22848C1709A
:10A04000B0230246A03A0A21022009F0E1FF244889
:10A05000C0780A214843034622A20D210DA80BF027
:10A06000CBFA0020009001900320284303463922B8
:10A070000DA919A00EF076FF00BF012E0AD1002015
:10A0800000900190032028430346FE2219A11BA043
:10A090000EF068FF11B0F0BD8D13002043616C6CB1
:10A0A000696E67202573207769746820766F69630D
:10A0B00065204F4B2100000043616C6C696E672086
:10A0C000257320696E206D757465204F4B2100004B
:10A0D0002573000011150020204F4B2100000000C7
:10A0E000D5120020566F6C756D653A2564252521C3
:10A0F000000000004552524F5221000020455252AC
:10A100004F522100F8B504460F462078572813D146
:10A11000A51C0AA12846FBF707F906463146084860
:10A12000FBF7E9F805A10020FBF7FEF806463146EB
:10A1300003481430FBF7DFF8F8BD00002C000000E6
:10A14000ED1500207CB504460D46207832281DDC34
:10A1500060782C281AD1A31C12A20F2112480BF0F0
:10A160004BFA01200021009101900320284303466F
:10A170003F220EA111A00EF0F5FE18230A4A083A5C
:10A180007D21C900022009F043FF0AE00020009071
:10A190000190032028430346FE220AA10BA00EF0E3
:10A1A000E1FE7CBD25730000F91700204465766947
:10A1B0006365206E616D65204F4B2100204F4B2160
:10A1C000000000004552524F5221000020455252DB
:10A1D0004F52210038B5002417E001200346022227
:10A1E000092100900BA001F0E9FA0A200FF04EF9C6
:10A1F0000AA10C48FBF73FF8002801D0012038BD28
:10A2000009480FF043F9601CC4B2032CE5DB0020C1
:10A21000F5E700002B4350494E3F000052454144B2
:10A220005900000019140020B80B000008B50120E7
:10A2300003230F220621009001A001F0BFFA08BD00
:10A240002B43534456433D3300000000F7B582B022
:10A2500004460D46012D01D0022D01D10C35641E9E
:10A26000691C4A0088180521FAF790FF6A000499D2
:10A27000511840180019E117890F0919891047185A
:10A28000642120460194FAF781FF3F1AFF219131A2
:10A290002046FAF77BFF381807210090FAF776FF7F
:10A2A0000E46701CC0B205B0F0BD000030B50F4BBB
:10A2B0001B782024A343440120252C4023430B4C2E
:10A2C000237023461B780824A343CC0008252C4088
:10A2D0002343064C237023461B781024A343140108
:10A2E00010252C402343014C237030BD6E0000200C
:10A2F000FFB589B0044615460027202101A8FAF7CA
:10A30000AFFF2A4800784007C00F002802D0022083
:10A310000DB0F0BD2078302802DA20782B2802D149
:10A320002078392801DD0020F2E76078302802DB50
:10A330006078392801DD0020EAE71C480078042114
:10A340008843001D19490870012D01D009F02BFD2B
:10A35000002619E0224616A101A80BF067F901209A
:10A36000034603220621009001A801F027FA0028E5
:10A3700008D02846129A0C99FDF7D4FB0746002F07
:10A3800000D004E0701CC6B20A988642E2DB00BF2F
:10A39000012F09D00548007804218843034908703B
:10A3A00009F0F8FCFCF764F83846B1E76E000020CD
:10A3B0004425733B0000000030B502460B460020E8
:10A3C000002107E00A244443555C2D072D0F601936
:10A3D0004C1CE1B29942F5DB30BD014608784128BA
:10A3E00004D188782C2801D1012070470020FCE797
:10A3F00070B505462878002800D170BD2846FAF7C8
:10A4000058FFC4B2052C05DD2046E10F0918C90527
:10A410000C0E00E0002437480078002807D02919E6
:10A420003448FAF728FF002801D00120E5E7314839
:10A43000007E002808D029192E481830FAF71BFF93
:10A44000002801D00220D8E72A482030007C0028CC
:10A4500008D0291927483030FAF70DFF002801D01D
:10A460000320CAE723484030007A002808D0291981
:10A4700020484830FAF7FFFE002801D00420BCE74E
:10A480001C4860300078002808D02919194860302D
:10A49000FAF7F1FE002801D00520AEE7154860303C
:10A4A000007E002808D0291912487830FAF7E3FE18
:10A4B000002801D00620A0E70E488030007C00284C
:10A4C00008D029190B489030FAF7D5FE002801D0A2
:10A4D000072092E70748A030007A002808D0291901
:10A4E0000448A830FAF7C7FE002801D0082084E706
:10A4F000002082E7E512002010B5174802F010FB9B
:10A50000164804F0F9F916480078C00900280ED161
:10A510000122D20213488118104804F04BFB104866
:10A5200000788021884380300D4908700BE00122BB
:10A53000D2020C49094804F03DFB0948007880210B
:10A54000884307490870054804F0FDF9012080029E
:10A5500000F0E6F810BD0000481A0020F8180020AE
:10A56000700000201801002010B504686360846842
:10A57000102C04D10468A2600468E16003E0046860
:10A58000A1600468E26010BD10B51B484069C007B7
:10A59000C00F002809D001201749486117480078EA
:10A5A00040084000401C15490870134840690221CA
:10A5B000084000281FD002200F4948610AF030FDF2
:10A5C000012818D1FDF780FA01280AD10B4800783C
:10A5D00004218843001D094908700020084948707B
:10A5E00009E00648007802218843801C034908706E
:10A5F00000200349087010BD0004014053000020F2
:10A600004B00002010B50E48406904210840002886
:10A6100005D004200A494861000200F063F80848A8
:10A62000406908210840002809D0082004494861F1
:10A630000448007840084000401C0249087010BDE2
:10A64000000401405300002010B522484069102149
:10A650000840002809D010201E4948611E48007893
:10A6600040084000401C1C4908701A4840692021DD
:10A670000840002809D02020164948611648007873
:10A6800040084000401C14490870124840690121EC
:10A690004903084000281BD008460E4948610AF0CB
:10A6A000BFFC01280AD10C480078082188430830F3
:10A6B0000949087000200949887009E006480078B7
:10A6C0001021884310300449087000200349887025
:10A6D00010BD000000040140530000204B0000208A
:10A6E00000BFFEE738B504460B4800680FF053F88A
:10A6F000204000280FD16A462146074800680FF025
:10A70000BBF8002806D00098002803D001200007DD
:10A710000249486000BF38BD3800002000ED00E06D
:10A7200038B504460B4800680FF035F82040002883
:10A730000FD16A462146074800680FF09DF80028AF
:10A7400006D00098002803D0012000070249486085
:10A7500000BF38BD3C00002000ED00E0FEB506461D
:10A760000F4614461D46002001900090012E6ED128
:10A7700020460899FBF75CF91FD228460999FBF798
:10A780004DF91AD2834808990068FBF751F913D2A2
:10A79000214680480068FBF741F9F8D229467E48F7
:10A7A0000068FBF745F9F2D27B4809990068FBF78E
:10A7B00035F9ECD201200190B5E020460899FBF76D
:10A7C0002DF91FD228460999FBF732F91AD22146F2
:10A7D00070480068FBF72CF9EED26E4808990068C3
:10A7E000FBF71CF9E8D26C4809990068FBF720F9DF
:10A7F000E2D2294668480068FBF710F9DCD2012054
:10A80000019090E020460899FBF708F920D22846ED
:10A810000999FBF703F91BD221465E480068FBF754
:10A8200007F913D25B4808990068FBF7F7F87AD26A
:10A83000294659480068FBF7FBF874D25648099935
:10A840000068FBF7EBF86ED2012001906BE024E08A
:10A8500020460899FBF7ECF865D228460999FBF7E2
:10A86000E7F860D24B4808990068FBF7E1F85AD244
:10A87000214648480068FBF7D1F854D24648099968
:10A880000068FBF7D5F84ED2294643480068FBF72D
:10A89000C5F848D20120019045E0012F43D1204660
:10A8A0000899FBF7C5F80ED221463A480068FBF735
:10A8B000BFF805D3374808990068FBF7AFF810D206
:10A8C000012000900DE0334808990068FBF7B0F8CC
:10A8D00005D321462F480068FBF7A0F801D20120DC
:10A8E000009028460999FBF7A3F80ED229462A487A
:10A8F0000068FBF79DF805D3274809990068FBF726
:10A900008DF810D2012000900DE0234809990068CD
:10A91000FBF78EF805D329461F480068FBF77EF841
:10A9200001D2012000900198002802D1009800284F
:10A930002DD00A9803000AF0BDFE0627040B121959
:10A9400020270523822215A101200EF04BFA1BE0DF
:10A950000523832214A101200EF044FA14E00523FC
:10A96000842214A101200EF03DFA0DE0052385227A
:10A9700013A101200EF036FA06E00523862213A16A
:10A9800001200EF02FFA00BF00BF0120FEBD002005
:10A99000FCE70000980000209C00002053746F63C7
:10A9A0006B6164653121000053746F636B61646592
:10A9B0003221000053746F636B61646533210000C2
:10A9C00053746F636B6164653421000053746F636B
:10A9D0006B6164653521000038B500252FE01C4B04
:10A9E0001CA25A2121480AF007FE01200346052235
:10A9F000062100901D4800F0E1FE1548393003465D
:10AA0000173B1BA25A21009018480AF0F5FD0120BF
:10AA10000346052206210090144800F0CFFE0446AC
:10AA2000002C09D10A200EF031FD18A00CF0F8FB23
:10AA3000002802D0012038BD0325681CC5B2032DB3
:10AA4000CDDB002C01D10020F5E70120F3E7000069
:10AA5000451200202B434744434F4E543D312C2296
:10AA60004950222C222573220000000024170020C8
:10AA70002B43534F434B415554483D312C332C22EB
:10AA80002573222C2225732200000000455252001B
:10AA900010B500F08BFA1B2105480EF0ABFB05A0AA
:10AAA0000EF0C0FA7D20C0000EF0F0FC10BD0000DA
:10AAB000881800200D0A000008B50120800301233A
:10AAC00002222821009002A000F078FE08BD0000BC
:10AAD0002B4349504F50454E3F00000038B51348B6
